{
  "_format": "hh-sol-artifact-1",
  "contractName": "DonationsRecord",
  "sourceName": "contracts/Donations.sol",
  "abi": [
    {
      "anonymous": false,
      "inputs": [
        {
          "indexed": false,
          "internalType": "string",
          "name": "id",
          "type": "string"
        },
        {
          "indexed": false,
          "internalType": "string",
          "name": "userId",
          "type": "string"
        },
        {
          "indexed": false,
          "internalType": "string",
          "name": "campaignId",
          "type": "string"
        },
        {
          "indexed": false,
          "internalType": "string",
          "name": "paymentRef",
          "type": "string"
        },
        {
          "indexed": false,
          "internalType": "string",
          "name": "status",
          "type": "string"
        },
        {
          "indexed": false,
          "internalType": "uint256",
          "name": "createdAt",
          "type": "uint256"
        }
      ],
      "name": "DonationStored",
      "type": "event"
    },
    {
      "inputs": [
        {
          "internalType": "string",
          "name": "",
          "type": "string"
        }
      ],
      "name": "donations",
      "outputs": [
        {
          "internalType": "string",
          "name": "id",
          "type": "string"
        },
        {
          "internalType": "string",
          "name": "userId",
          "type": "string"
        },
        {
          "internalType": "string",
          "name": "campaignId",
          "type": "string"
        },
        {
          "internalType": "string",
          "name": "paymentRef",
          "type": "string"
        },
        {
          "internalType": "string",
          "name": "metadata",
          "type": "string"
        },
        {
          "internalType": "string",
          "name": "hashItem",
          "type": "string"
        },
        {
          "internalType": "string",
          "name": "currency",
          "type": "string"
        },
        {
          "internalType": "string",
          "name": "status",
          "type": "string"
        },
        {
          "internalType": "uint256",
          "name": "confirmedAt",
          "type": "uint256"
        },
        {
          "internalType": "uint256",
          "name": "createdAt",
          "type": "uint256"
        },
        {
          "internalType": "bool",
          "name": "isAnonymous",
          "type": "bool"
        },
        {
          "internalType": "string",
          "name": "donationMessage",
          "type": "string"
        }
      ],
      "stateMutability": "view",
      "type": "function"
    },
    {
      "inputs": [
        {
          "internalType": "string",
          "name": "id",
          "type": "string"
        },
        {
          "internalType": "string",
          "name": "userId",
          "type": "string"
        },
        {
          "internalType": "string",
          "name": "campaignId",
          "type": "string"
        },
        {
          "internalType": "string",
          "name": "paymentRef",
          "type": "string"
        },
        {
          "internalType": "string",
          "name": "metadata",
          "type": "string"
        },
        {
          "internalType": "string",
          "name": "hashItem",
          "type": "string"
        },
        {
          "internalType": "string",
          "name": "currency",
          "type": "string"
        },
        {
          "internalType": "string",
          "name": "status",
          "type": "string"
        },
        {
          "internalType": "uint256",
          "name": "confirmedAt",
          "type": "uint256"
        },
        {
          "internalType": "uint256",
          "name": "createdAt",
          "type": "uint256"
        },
        {
          "internalType": "bool",
          "name": "isAnonymous",
          "type": "bool"
        },
        {
          "internalType": "string",
          "name": "donationMessage",
          "type": "string"
        }
      ],
      "name": "storeDonation",
      "outputs": [],
      "stateMutability": "nonpayable",
      "type": "function"
    }
  ],
  "bytecode": "0x60808060405234610016576110de908161001c8239f35b600080fdfe6080604052600436101561001257600080fd5b60003560e01c80632dcb222714610d7957633bab47eb1461003257600080fd5b34610d745761018080600319360112610d74576004356001600160401b038111610d7457610064903690600401610f2b565b6024356001600160401b038111610d7457610083903690600401610f2b565b6044356001600160401b038111610d74576100a2903690600401610f2b565b6064356001600160401b038111610d74576100c1903690600401610f2b565b906084356001600160401b038111610d74576100e1903690600401610f2b565b9260a4356001600160401b038111610d7457610101903690600401610f2b565b9360c4356001600160401b038111610d7457610121903690600401610f2b565b9460e4356001600160401b038111610d7457610141903690600401610f2b565b9561014435918215158303610d7457610164356001600160401b038111610d7457610170903690600401610f2b565b936040519a8b6001600160401b03828281810110920111176106f1578b01604052898b528560208c01528660408c01528760608c015260808b015260a08a015260c08901528560e08901526101043561010089015261012435610120890152151561014088015261016087015260405160208187516101f28183858c01610f81565b810160008152030190209580518051906001600160401b0382116106f157819061021c8a54610fa4565b601f8111610d24575b50602090601f8311600114610cb857600092610cad575b50508160011b916000199060031b1c19161787555b60208101518051906001600160401b0382116106f157819061027660018b0154610fa4565b601f8111610c5a575b50602090601f8311600114610be857600092610bdd575b50508160011b916000199060031b1c19161760018801555b60408101518051906001600160401b0382116106f15781906102d360028b0154610fa4565b601f8111610b8a575b50602090601f8311600114610b1857600092610b0d575b50508160011b916000199060031b1c19161760028801555b60608101518051906001600160401b0382116106f157819061033060038b0154610fa4565b601f8111610aba575b50602090601f8311600114610a4857600092610a3d575b50508160011b916000199060031b1c19161760038801555b60808101518051906001600160401b0382116106f157819061038d60048b0154610fa4565b601f81116109ea575b50602090601f83116001146109785760009261096d575b50508160011b916000199060031b1c19161760048801555b60a08101518051906001600160401b0382116106f15781906103ea60058b0154610fa4565b601f811161091a575b50602090601f83116001146108a85760009261089d575b50508160011b916000199060031b1c19161760058801555b60c08101518051906001600160401b0382116106f157819061044760068b0154610fa4565b601f811161084a575b50602090601f83116001146107d8576000926107cd575b50508160011b916000199060031b1c19161760068801555b60e08101518051906001600160401b0382116106f1576104a260078a0154610fa4565b601f8111610786575b50602090601f83116001146107125761016093929160009183610707575b50508160011b916000199060031b1c19161760078901555b61010081015160088901556101208101516009890155600a8801610140820151151560ff8019835416911617905501518051906001600160401b0382116106f15761052f600b890154610fa4565b601f81116106aa575b50602090601f831160011461060657936105c36105df947f13120fdf186802388147545ad2f107887ac0d5dabdeed6b8a1ca321f83a46f489a600b866105ed9a976105d1976105b59e9d9b6000926105fb575b50508160011b916000199060031b1c1916179101555b604051998a9960c08b5260c08b0190611083565b9089820360208b0152611083565b908782036040890152611083565b908582036060870152611083565b908382036080850152611083565b6101243560a08301520390a1005b01519050388061058b565b90601f19831691600b8a0160005260206000209260005b8181106106925750947f13120fdf186802388147545ad2f107887ac0d5dabdeed6b8a1ca321f83a46f489a600b6001876105d1976105b59e9d9b976105c3976105ed9e9b6105df9d10610679575b505050811b019101556105a1565b015160001960f88460031b161c1916905538808061066b565b9293602060018192878601518155019501930161061d565b600b89016000526020600020601f840160051c8101602085106106ea575b601f830160051c820181106106de575050610538565b600081556001016106c8565b50806106c8565b634e487b7160e01b600052604160045260246000fd5b0151905038806104c9565b9060078a0160005260206000209160005b601f198516811061076e57509183916001936101609695601f19811610610755575b505050811b0160078901556104e1565b015160001960f88460031b161c19169055388080610745565b91926020600181928685015181550194019201610723565b60078a016000526020600020601f840160051c8101602085106107c6575b601f830160051c820181106107ba5750506104ab565b600081556001016107a4565b50806107a4565b015190503880610467565b925060068a016000526020600020906000935b601f198416851061082f576001945083601f19811610610816575b505050811b01600688015561047f565b015160001960f88460031b161c19169055388080610806565b818101518355602094850194600190930192909101906107eb565b90915060068a016000526020600020601f840160051c810160208510610896575b90849392915b601f830160051c82018110610887575050610450565b60008155859450600101610871565b508061086b565b01519050388061040a565b925060058a016000526020600020906000935b601f19841685106108ff576001945083601f198116106108e6575b505050811b016005880155610422565b015160001960f88460031b161c191690553880806108d6565b818101518355602094850194600190930192909101906108bb565b90915060058a016000526020600020601f840160051c810160208510610966575b90849392915b601f830160051c820181106109575750506103f3565b60008155859450600101610941565b508061093b565b0151905038806103ad565b925060048a016000526020600020906000935b601f19841685106109cf576001945083601f198116106109b6575b505050811b0160048801556103c5565b015160001960f88460031b161c191690553880806109a6565b8181015183556020948501946001909301929091019061098b565b90915060048a016000526020600020601f840160051c810160208510610a36575b90849392915b601f830160051c82018110610a27575050610396565b60008155859450600101610a11565b5080610a0b565b015190503880610350565b925060038a016000526020600020906000935b601f1984168510610a9f576001945083601f19811610610a86575b505050811b016003880155610368565b015160001960f88460031b161c19169055388080610a76565b81810151835560209485019460019093019290910190610a5b565b90915060038a016000526020600020601f840160051c810160208510610b06575b90849392915b601f830160051c82018110610af7575050610339565b60008155859450600101610ae1565b5080610adb565b0151905038806102f3565b925060028a016000526020600020906000935b601f1984168510610b6f576001945083601f19811610610b56575b505050811b01600288015561030b565b015160001960f88460031b161c19169055388080610b46565b81810151835560209485019460019093019290910190610b2b565b90915060028a016000526020600020601f840160051c810160208510610bd6575b90849392915b601f830160051c82018110610bc75750506102dc565b60008155859450600101610bb1565b5080610bab565b015190503880610296565b925060018a016000526020600020906000935b601f1984168510610c3f576001945083601f19811610610c26575b505050811b0160018801556102ae565b015160001960f88460031b161c19169055388080610c16565b81810151835560209485019460019093019290910190610bfb565b90915060018a016000526020600020601f840160051c810160208510610ca6575b90849392915b601f830160051c82018110610c9757505061027f565b60008155859450600101610c81565b5080610c7b565b01519050388061023c565b9250896000526020600020906000935b601f1984168510610d09576001945083601f19811610610cf0575b505050811b018755610251565b015160001960f88460031b161c19169055388080610ce3565b81810151835560209485019460019093019290910190610cc8565b909150896000526020600020601f840160051c810160208510610d6d575b90849392915b601f830160051c82018110610d5e575050610225565b60008155859450600101610d48565b5080610d42565b600080fd5b34610d74576020366003190112610d74576004356001600160401b038111610d7457610da9903690600401610f2b565b6040518181809351602081930191610dc092610f81565b810160008152036020019020610dd581610fde565b610de160018301610fde565b91610dee60028201610fde565b90610dfb60038201610fde565b90610e0860048201610fde565b91610e1560058301610fde565b610e2160068401610fde565b610e2d60078501610fde565b91600885015495600986015494600a87015460ff1696600b01610e4f90610fde565b986040519b8c9b8c6101808091528d01610e6891611083565b8c810360208e0152610e7991611083565b8b810360408d0152610e8a91611083565b8a810360608c0152610e9b91611083565b89810360808b0152610eac91611083565b88810360a08a0152610ebd91611083565b87810360c0890152610ece91611083565b86810360e0880152610edf91611083565b926101008601526101208501521515610140840152828103610160840152610f0691611083565b0390f35b90601f801991011681019081106001600160401b038211176106f157604052565b81601f82011215610d74578035906001600160401b0382116106f15760405192610f5f601f8401601f191660200185610f0a565b82845260208383010111610d7457816000926020809301838601378301015290565b60005b838110610f945750506000910152565b8181015183820152602001610f84565b90600182811c92168015610fd4575b6020831014610fbe57565b634e487b7160e01b600052602260045260246000fd5b91607f1691610fb3565b90604051918260008254610ff181610fa4565b908184526020946001916001811690816000146110615750600114611022575b50505061102092500383610f0a565b565b600090815285812095935091905b8183106110495750506110209350820101388080611011565b85548884018501529485019487945091830191611030565b9250505061102094925060ff191682840152151560051b820101388080611011565b9060209161109c81518092818552858086019101610f81565b601f01601f191601019056fea2646970667358221220df3c070cd40ddff9cc2d14782b6ceb227f6a0ee650ae93757e444fc048c6d5dc64736f6c63430008180033",
  "linkReferences": {},
  "deployedLinkReferences": {}
}